{
  "contractName": "MyDice",
  "abi": [
    {
      "inputs": [],
      "name": "recharge",
      "outputs": [],
      "stateMutability": "payable",
      "type": "function",
      "payable": true
    },
    {
      "inputs": [
        {
          "internalType": "uint32",
          "name": "_amount",
          "type": "uint32"
        }
      ],
      "name": "withdraw",
      "outputs": [],
      "stateMutability": "nonpayable",
      "type": "function"
    },
    {
      "inputs": [
        {
          "internalType": "uint8",
          "name": "_num",
          "type": "uint8"
        }
      ],
      "name": "play",
      "outputs": [
        {
          "internalType": "uint8",
          "name": "",
          "type": "uint8"
        },
        {
          "internalType": "uint256",
          "name": "",
          "type": "uint256"
        },
        {
          "internalType": "uint8",
          "name": "",
          "type": "uint8"
        },
        {
          "internalType": "uint256",
          "name": "",
          "type": "uint256"
        }
      ],
      "stateMutability": "payable",
      "type": "function",
      "payable": true
    }
  ],
  "bytecode": "0x6080604052336000806101000a81548173ffffffffffffffffffffffffffffffffffffffff021916908373ffffffffffffffffffffffffffffffffffffffff16021790555034801561005057600080fd5b506106e9806100606000396000f3fe6080604052600436106100345760003560e01c80634cddae281461003957806353a04b0514610043578063aa9224cd14610076575b600080fd5b61004161009f565b005b61005d60048036038101906100589190610353565b6100f9565b60405161006d94939291906103a8565b60405180910390f35b34801561008257600080fd5b5061009d60048036038101906100989190610429565b6101cd565b005b60008054906101000a900473ffffffffffffffffffffffffffffffffffffffff1673ffffffffffffffffffffffffffffffffffffffff163373ffffffffffffffffffffffffffffffffffffffff16146100f757600080fd5b565b60008060008060018560ff1610158015610117575060638560ff1611155b61012057600080fd5b600061012e60006063610295565b90508560ff168160ff1610156101b75760008660ff166064346101519190610485565b61015b919061050e565b90503373ffffffffffffffffffffffffffffffffffffffff166108fc829081150290604051600060405180830381858888f193505050501580156101a3573d6000803e3d6000fd5b5086348383955095509550955050506101c6565b85348260009450945094509450505b9193509193565b60008054906101000a900473ffffffffffffffffffffffffffffffffffffffff1673ffffffffffffffffffffffffffffffffffffffff163373ffffffffffffffffffffffffffffffffffffffff161461022557600080fd5b60008054906101000a900473ffffffffffffffffffffffffffffffffffffffff1673ffffffffffffffffffffffffffffffffffffffff166108fc8263ffffffff169081150290604051600060405180830381858888f19350505050158015610291573d6000803e3d6000fd5b5050565b60008260ff168260ff16116102a957600080fd5b60004233446040516020016102c0939291906105da565b60405160208183030381529060405280519060200120905083600185856102e79190610617565b6102f1919061064b565b60ff168260001c6103029190610682565b61030c919061064b565b91505092915050565b600080fd5b600060ff82169050919050565b6103308161031a565b811461033b57600080fd5b50565b60008135905061034d81610327565b92915050565b60006020828403121561036957610368610315565b5b60006103778482850161033e565b91505092915050565b6103898161031a565b82525050565b6000819050919050565b6103a28161038f565b82525050565b60006080820190506103bd6000830187610380565b6103ca6020830186610399565b6103d76040830185610380565b6103e46060830184610399565b95945050505050565b600063ffffffff82169050919050565b610406816103ed565b811461041157600080fd5b50565b600081359050610423816103fd565b92915050565b60006020828403121561043f5761043e610315565b5b600061044d84828501610414565b91505092915050565b7f4e487b7100000000000000000000000000000000000000000000000000000000600052601160045260246000fd5b60006104908261038f565b915061049b8361038f565b9250817fffffffffffffffffffffffffffffffffffffffffffffffffffffffffffffffff04831182151516156104d4576104d3610456565b5b828202905092915050565b7f4e487b7100000000000000000000000000000000000000000000000000000000600052601260045260246000fd5b60006105198261038f565b91506105248361038f565b925082610534576105336104df565b5b828204905092915050565b6000819050919050565b61055a6105558261038f565b61053f565b82525050565b600073ffffffffffffffffffffffffffffffffffffffff82169050919050565b600061058b82610560565b9050919050565b60008160601b9050919050565b60006105aa82610592565b9050919050565b60006105bc8261059f565b9050919050565b6105d46105cf82610580565b6105b1565b82525050565b60006105e68286610549565b6020820191506105f682856105c3565b6014820191506106068284610549565b602082019150819050949350505050565b60006106228261031a565b915061062d8361031a565b9250828210156106405761063f610456565b5b828203905092915050565b60006106568261031a565b91506106618361031a565b92508260ff0382111561067757610676610456565b5b828201905092915050565b600061068d8261038f565b91506106988361038f565b9250826106a8576106a76104df565b5b82820690509291505056fea2646970667358221220798e11256b3c6118c8ed7b97ba198cb78830f72fc2285c2941cc2212d239297164736f6c634300080f0033",
  "immutableReferences": {},
  "source": "pragma solidity 0.8.15;\r\n\r\ncontract MyDice {\r\n\r\n   //contract creator\r\n    address payable private owner = payable(msg.sender);\r\n\r\n    modifier onlyOwner() {\r\n        require(msg.sender == owner);\r\n        _;\r\n    }\r\n\r\n   //The homeowner recharges the contract wallet\r\n    function recharge() onlyOwner payable public {\r\n    }\r\n\r\n   //The host takes the initiative to withdraw cash from the contract wallet\r\n    function withdraw(uint32 _amount) onlyOwner public {\r\n        owner.transfer(_amount);\r\n    }\r\n\r\n   //solidity cannot return structure, but can return tuples\r\n   //@param _num is the selected number between [1, 99]\r\n   //@return (player chooses numbers, chips, generated numbers, payout chips)\r\n    function play(uint8 _num) payable public\r\n            returns (uint8, uint256, uint8, uint256) {\r\n\r\n        require(_num >= 1 && _num <= 99);\r\n\r\n       //Generate random numbers of [0, 99]\r\n        uint8 tval = randomInt(0, 99);\r\n\r\n        if (tval <_num) {\r\n           //Calculate the value of the payout\r\n            uint256 payout = uint256(msg.value * 100/_num);\r\n            payable(msg.sender).transfer(payout);\r\n            return (_num, msg.value, tval, payout);\r\n        } else {\r\n            return (_num, msg.value, tval, 0);\r\n        }\r\n\r\n    }\r\n\r\n   //Generate a random number between [min, max]\r\n    function randomInt(uint8 min, uint8 max) private\r\n            view returns(uint8) {\r\n\r\n        require(max> min);\r\n\r\n        bytes32 hash = keccak256(\r\n            abi.encodePacked(block.timestamp, msg.sender, block.difficulty)\r\n        );\r\n\r\n        return uint8(uint256(hash)% (max-min + 1)) + min;\r\n\r\n    }\r\n\r\n}",
  "sourcePath": "C:\\Users\\Jian-PC\\workspace\\ropsten-test\\contracts\\MyDice.sol",
  "compiler": {
    "name": "solc",
    "version": "0.8.15+commit.e14f2714.Emscripten.clang"
  },
  "schemaVersion": "3.4.8",
  "updatedAt": "2022-08-08T19:06:49.218Z",
  "networkType": "ethereum",
  "devdoc": {
    "kind": "dev",
    "methods": {},
    "version": 1
  },
  "userdoc": {
    "kind": "user",
    "methods": {},
    "version": 1
  }
}